:02000000EE2CE4
:0E000600F201F101F001F801F30100300800F1
:100014007B15FB1F14280130F300F201F101F001FC
:08002400FA0DF20CFF30080098
:08002C00FA1FF2130030080076
:10003400FB14FB1F2428FF30F300F200F100F00052
:08004400FA0DF20CFF30080078
:10004C0083120313FA017308031D7A147708031D36
:10005C00FA147A0803197228033A03193D287A18FE
:10006C003A28F61F70286E28F21F6E287028720826
:10007C008039FA00F21376088039F6137A060319E0
:10008C004B287A0803196E28702877087302031915
:10009C005228031C66286A2876087202031959280C
:1000AC00031C66286A287508710203196028031C52
:1000BC0066286A28740870020319722803186A28C3
:1000CC00FA08031970286E28FA0803196E2870288C
:1000DC00031408000310080003140315080008009B
:1000EC0083120313F8010830FC00700DF80D74082E
:1000FC00F80203188328F8070310F00DFC0B7B287B
:02010C000800E9
:10010E00831603172308F2007208F100F20A24087E
:10011E00F000A40A700884000008F0007108840042
:10012E007008800071088400000803199F288B282E
:06013E002308F000080098
:1001440083120313FB017308031D77080319F928AD
:1001540072087606FA007708F3077E30031CB62887
:10016400F3020318FC28B928F302031CFF287208C1
:10017400F8007108FC007008FD00F817F61703106A
:10018400F201F101F0011830A0007D1CD32874089D
:10019400F00775080318750FF10776080318760F32
:1001A400F207F20CF10CF00CF80CFC0CFD0C031033
:1001B400A00BC728F21BE328F80DF00DF10DF20D8A
:1001C400F3037B1B701CF528F81FF528F00A0319AC
:1001D400F10A0319F20A031DF528F20CF10CF00CD4
:1001E400F30A0319FC28FA1FF21300300129013025
:1001F4000320012902301A20012904300A200000BA
:020204000800F0
:10020600831603139818092900000329831203177C
:080216006F08031399000800B2
:06021E00FB15FF30080093
:10022400A0017208031D27297108F2007008F1006B
:10023400F001A0157208031D27297108F200F101CD
:10024400A01120167208031935292008F302031D92
:10025400031C39290310F21B3D29F00DF10DF20D99
:10026400F30B2D2939290130FC00032040290230E9
:0E027400FC000A2040290430FC00162008007F
:0E028200831603136D088A006C0882000800C2
:100290000E3083120313FD00FD0B4C2900000800F3
:1002A0000A3083120317EF0003210D300317EF000C
:0402B000032108001E
:1002B40083120317ED01EE01660883169F00831273
:1002C40067088316A000831268088316A1008312AE
:1002D40069088316A2002208FF3A031D7B2921081E
:1002E400FF3A031D7B292008FF3A031D7B291F08C1
:1002F400FF3A031D872983126A088316A300673017
:10030400A40087200330F0007C2B01308312EB0023
:100314008316A11F992980302106F0007008A100DE
:100324008312EB0A6A0884002D308000EA0A003048
:10033400F00083162206031DA92970082106031D57
:10034400A92970082006031DA9291F08003A031DC6
:10035400B42983126A088316A300E530A400872019
:10036400F0017C2B2208FF3A031DC2292108003A20
:10037400031DC2292008003A031DC2291F08003AA0
:10038400031DCF2983126A088316A3006B30A400CF
:10039400872083126B08F0007C2B0030F4000030BF
:1003A400F5000030F6007F30F70083161F08F000D8
:1003B4002008F1002108F2002208F3002620013071
:1003C40003180030F00070080319082A8316031775
:1003D4001F08F0002008F1002108F2002208F300B1
:1003E4000030F4000030F5002030F6008230F700D1
:1003F400A2207008831603179F007108A0007208DA
:10040400A1007308A2008312EE03CF290317003062
:10041400F4000030F5002030F6008230F700831637
:100424001F08F0002008F1002108F2002208F30060
:1004340026200130031C0030F00070080319422A02
:10044400831603171F08F0002008F1002108F200AA
:100454002208F300CD30F400CC30F5004C30F60027
:100464007B30F700A2207008831603179F007108E1
:10047400A0007208A1007308A2008312EE0A082AE1
:100484000317FF3083161F05F800FF302005F9001D
:100494007F302105FA0000302205FB007808F400C3
:1004A4007908F5007A08F6007B08F700F40DF50DDD
:1004B400F60DF70D741000301F05F0000030200514
:1004C400F10000302105F200FF302205F30070082E
:1004D4009F007108A0007208A1007308A2007408AC
:1004E4001F04F00075082004F10076082104F200CE
:1004F40077082204F30070089F007108A0007208B6
:10050400A1007308A2007F302202F0007008831259
:10051400EC0001308316A2007008F4001F08F000FC
:100524002008F1002108F2002208F30074080319DE
:10053400A22AF00DF10DF20DF30D7010FF3E992A71
:10054400831670089F007108A0007208A100730848
:10055400A2002208303EF00083126A08840070086A
:100564008000EA0A80306E06F0008030013A7002A2
:10057400031CC52A8030063AF00080306E067002F3
:10058400031CC52ACC2A6A0884002E308000EA0A9B
:100594000130ED000630EC006C08003A03192C2BF6
:1005A4008316A2011F08F0002008F1002108F200C0
:1005B4002208F300F00DF10DF20DF30D7010F00DA3
:1005C400F10DF20DF30D70101F08F0072008031849
:1005D400200FF10721080318210FF207220803183E
:1005E400220FF30770089F007108A0007208A10091
:1005F4007308A2001F08F0002008F1002108F2008F
:100604002208F300F00DF10DF20DF30D70107008D7
:100614009F007108A0007208A1007308A2002208BC
:10062400303EF00083126A08840070088000EA0AF1
:100634006D08003A031D2A2BEE036E08003A031DD1
:100644002A2B6A0884002E308000EA0A0130ED006B
:10065400EC03CE2AFF306A0784000008303A031DF9
:10066400352BEA032C2BFF306A07840000082E3A4E
:10067400031D3D2BEA036E08003A0319782B6A0820
:10068400840065308000EA0A80306E06F000803015
:10069400003A70020318562B6A0884002D3080003B
:1006A400EA0A6E08003CEE006E08EC006E08093C95
:1006B4000318692B0A30F4006C08F00076203030FF
:1006C400F00703176A08840070088000EA0A0A30F9
:1006D400F4006C08F00076207808F0003030F00761
:1006E40003176A08840070088000EA0A6A08840014
:0606F4008001F001080086
:1006FA00831203137408003A031D982B7508003AF5
:10070A00031D982B7608003A031D982B7708003AA8
:10071A00031D982BFF30F000FF30F1007F30F2000C
:10072A00FF30F300332C8312031377080319272CA5
:10073A00730803192A2C720876068039FA00F21710
:10074A00F617A0017208F8007108FC007008FD0095
:10075A007408FD027508031C750FFC027608031C59
:10076A00760FF802F801FC01FD01031CC32B0310EC
:10077A00F20CF10CF00CF80C0130A0007708F3022F
:10078A00031CCD2B7E302007F30703182D2CD22B08
:10079A007E302007F307031C302C1830FA07FD0DB2
:1007AA00FC0DF80DF00DF10DF20DA00D7408F0021C
:1007BA007508031C750FF1027608031C760FF20206
:1007CA00760DA004201CEB2B7D14F62B7408F00781
:1007DA0075080318750FF10776080318760AF207E9
:1007EA007D10FA031F307A05031DD42B7B1B7D1C59
:1007FA001D2C0310F00DF10DF20DA00D7408F0027E
:10080A007508031C750FF1027608031C760FF202B5
:10081A00760D20040139FD070318FC0A0319F80AAA
:10082A00031D1D2CF80CFC0CFD0CF30A03192D2CCE
:10083A00FA1FF8137808F2007C08F1007D08F0002E
:10084A000030322C01300F21322C02300320322C9E
:0E085A0004301A20322C08300A20000008005A
:1008680083120313EF0105306F020318412C6F0840
:0C087800E73E84008001EF0A372C0800E6
:10088400831203137008F8007108F000F101F201FB
:10089400F301FB01FC019630F300FA017008F1004A
:0C08A4007808F000F801F20112210800B1
:1008B00083120313FB01FA01F9018030F800F10CF7
:1008C000F00C031C6C2C7408F90775080318750FDD
:1008D000FA070318FB0A0310F01F742C7408FA07B8
:1008E00075080318750FFB07FB0CFA0CF90CF80CD4
:1008F000031C5F2C7B08F3007A08F2007908F100F2
:060900007808F000080079
:1009060041218A110A128000840AEC0A0319ED0AB1
:08091600F003031D832C08000F
:0E091E000030831203138C1A0130F000080021
:10092C00831203139F01C0309F0483161F179F1758
:10093C00831203176608F000F00D7010F00D7010A4
:10094C00F00D7010700803139F041F1448211F151D
:10095C001F1DB22C0000AE2C1F101E08F100F00160
:0C096C0083161E08F0040030F10408009F
:10097800831203131A08F100981CC42C18121816B5
:060988007108F0000800F8
:10098E0083120317E801660884000008E700670871
:10099E00003A0319DD2C6708EF0003210317E80A5C
:0E09AE006808660784000008E700CE2C0800E9
:1009BC0083160313981690308312980083168717AA
:1009CC00071383128C1EED2C1A08F000E72C08007C
:1009DC00F226831603138801FF30860083128601EA
:1009EC0088013330831699001815DE245A3003170A
:1009FC00E600C7243E30E600C7240317E601962420
:100A0C000530F4000030F500582442240030F40086
:100A1C00C030F5007F30F6008830F7007D230030C1
:100A2C00F4000030F5004830F6008530F700A220C5
:100A3C0070080317E6007108E7007208E8007308F5
:100A4C00E9009030EA005A21A03083120317E60027
:100A5C00C7249030E600C7246430E600C7240A306F
:100A6C00EF0003210D300317EF0003210630FB00CC
:100A7C001330FC00AD30FD00FD0B422DFC0B422D64
:100A8C00FB0B422D000000008F247008013A031D5F
:100A9C00FE2D3D08E73E8316EF00BC2483166F083D
:100AAC0084007008800083123D08E73E8400000833
:100ABC002F3A031D6A2D502121300317E600C7245D
:100ACC000313BD013424FE2D2A300317EF0003213C
:100ADC00BD0A3D08053A031DFE2D502183166708FB
:100AEC006D3A031D9B2D68086F3A031D9B2D6908F9
:100AFC00743A031D9B2D6A086F3A031D9B2D6B08DE
:100B0C00723A031D9B2D0130831288060818932D11
:100B1C00B0300317E600C724972D03173330E600D7
:100B2C00C7240313BD013424FE2D831667086C3AC9
:100B3C00031DC22D6808613A031DC22D69086D3A68
:100B4C00031DC22D6A08703A031DC22D6B08313A81
:100B5C00031DC22D0230831288068818BA2D22304C
:100B6C000317E600C724BE2D03175630E600C72432
:100B7C000313BD013424FE2D83166708623A031D4E
:100B8C00E92D6808753A031DE92D69087A3A031DA9
:100B9C00E92D6A087A3A031DE92D6B08313A031DD9
:100BAC00E92D0430831288060819E12D4330031710
:100BBC00E600C724E52D03171030E600C724031305
:100BCC00BD013424FE2D8316EE01EE016E08033CAC
:100BDC00031CFB2DC13083120317E600C72403133B
:100BEC00BD0134248316EE0AEC2D831206148614F0
:040BFC00032DFF2D99
:100DE40021308400463083120313F0005B308316F5
:100DF400EC000630ED008324A030840021308312FF
:100E04000313F000C5308316EC000630ED00832494
:100E140067308400043083120313F000E630831635
:100E2400EC000630ED008324C130840024308312AA
:100E34000313F000A1308316EC000630ED00832488
:100E44006B308400043083120313F000EA308316FD
:100E5400EC000630ED008324E53084000230831278
:100E64000313F000EE308316EC000630ED0083240B
:100E7400103083178400563083120313F0000530BA
:100E84008316EC000630ED00832483136F30840056
:100E9400013083120313F000F0308316EC000630A7
:060EA400ED0083240800AC
:100C0A00423475347A347A34653472342034543444
:100C1A00753472346E34733420344F344E340A349B
:040C2A000D34003451
:100C2E004C3461346D347034203454347534723431
:100C3E006E34733420344F34463446340A340D3413
:020C4E00003470
:100C500064346F346F347234203469347334203424
:100C600020344F346F3465346E340A340D3400341C
:100C7000423475347A347A346534723420345434DE
:100C8000753472346E34733420344F344634463401
:060C90000A340D340034AB
:100C96004C3461346D3470342034543475347234C9
:100CA6006E34733420344F344E340A340D340034E9
:100CB60050346C34653461347334653420344534CF
:100CC6006E34743465347234203454346834653484
:100CD6002034503461347334733477346F3472345F
:080CE60064340A340D340034BB
:020CEE000034D0
:100CF00050346C3465346134733465342034453495
:100D00006E34743465347234203454346834653449
:100D10002034503461347334733477346F34723424
:080D200064340A340D34003480
:100D2800573445344C3443344F344D3445340A3405
:040D38000D34003442
:060D3C00203443340034B2
:100D420050346C3465346134733465342034453442
:100D52006E347434653472342034543468346534F7
:100D6200203443346F3472347234653463347434EF
:100D72002034503461347334733477346F347234C2
:080D820064340A340D3400341E
:100D8A00433475347234723465346E3474342034B6
:100D9A00543465346D34703420343D342034003496
:100DAA0064346F346F3472342034693473342034C9
:100DBA0063346C346F347334653464340A340D34F8
:020DCA000034F3
:080DCC004E3461344E34003452
:080DD40049344E34463400346A
:040DDC00303400347B
:020DE0000034DD
:02400E004A2F37
:00000001FF
